:100000000C9437000C9431010C9431010C943101A3
:100010000C9431010C9431010C9431010C94310198
:100020000C9431010C9431010C9431010C94310188
:100030000C9431010C9431010C9431010C94310178
:100040000C94F4000C9431010C9431010C943101A6
:100050000C9431010C9431010C9431010C94310158
:100060000C9431010C943101010001028000112433
:100070001FBECFEFD8E0DEBFCDBFE8E6F0E040E046
:1000800017C0B591A59135912591059107FD0CC03B
:1000900095918591EF01F92FE82F05900D92A21708
:1000A000B307D9F7FE0104C01D92A217B307E1F709
:1000B000ED36F40731F70E9461000C942201F894A8
:0200C000FFCF70
:1000C200F8940E942D010E9417017894C8EED3E0A3
:1000D200FF24FA94E4EFF1E00AEF1DE740910001FA
:1000E200509101019A0136952795369527953695B7
:1000F2002795A5ECB0E20E940801929582958F7037
:1001020089279F7089278C9F90018D9F300D9C9F1E
:10011200300D11244217530711F48BB1FBB84091F3
:100122000001509101019A01369527953695279540
:10013200A5ECB0E20E940801929582958F70892702
:100142009F7089278E9F90018F9F300D9E9F300D4B
:1001520011244217530719F48BB18E6F8BB940915A
:100162000001509101019A0136952795A3E1B3E868
:100172000E9408010024880F991F001C880F991FF4
:10018200001C892F902D089F9001099F300D11248A
:100192004217530719F48BB18D6F8BB9409100014F
:1001A200509101019A01A5E2B6E00E940801281BC4
:1001B200390B36952795820F931F0024880F991FBC
:1001C200001C880F991F001C892F902D189F9001E9
:1001D200199F300D11244217530709F07FCF8BB1BD
:0601E2008C6F8BB97BCF8E
:1001E8008F938FB78F939F93809100019091010116
:1001F8000196909301018093000181E486BD9F914F
:080208008F918FBF8F911895B3
:10021000A29FB001B39FC001A39F700D811D112447
:0E022000911DB29F700D811D1124911D089536
:10022E00EEE6F0E080818160808385B5836085BDD8
:06023E0081E486BD089575
:10024400EC010E9436010E943501CE010E94370163
:06025400CE010E943301FF
:08025A008FEF8AB91BB808956B
:040262000C940000F8
:040266000E945F0093
:02026A000895F5
:02026C000895F3
:02026E000895F1
:00000001FF
