:100000000C9434000C947A000C947A000C947A00CE
:100010000C947A000C947A000C947A000C947A0078
:100020000C947A000C947A000C947A000C947A0068
:100030000C947A000C947A000C947A000C947A0058
:100040000C947A000C947A000C947A000C947A0048
:100050000C947A000C947A000C947A000C947A0038
:100060000C947A000C947A0011241FBECFEFD8E0D4
:10007000DEBFCDBF0E945B000C946800F894FFCFF8
:1000800088309105A8F4ECE7F0E02081287F8770A4
:100090009927822B8083EAE7F0E080818064808367
:1000A000808186FDFDCF8091780090917900089540
:0600B00081E090E00895DC
:1000B6000E9473008FEF84B983E087B982E090E0F5
:0A00C6000E94400085B998B9F9CFF7
:1000D000EC010E947F000E947E00CE010E94800001
:0600E000CE010E947C002D
:0E00E60080E480937C0087E880937A00089580
:0400F4000C94000068
:0400F8000E943E0024
:0200FC00089565
:0200FE00089563
:02010000089560
:00000001FF
