:060000000A128A11FC2F18
:100F2E00F030831603139F059F171F1383120313AD
:100F3E001F083F3980389F00C7309F051F111F14AF
:100F4E0008000A128A1197270A128A1183160313B0
:100F5E0086017C30F5007508870500300A128A116B
:100F6E00C8270A128A117108F7007008F600760871
:100F7E0083120313860077088700B42F0A128A1192
:100F8E000028F400083074020318CE2FCF2FF92F4B
:100F9E00C530F2007208831203139F057408F20025
:100FAE0002300310F20DFF3E031DD82F0310720DF9
:100FBE00F30073089F040630F3003030F200F20B9A
:100FCE00E62FF30BE62F0000831203131F151F19D4
:100FDE00F12FF22FEE2F1E08F100831603131E08B9
:100FEE00F000FB2FF001F101080083010A128A11B3
:020FFE00A82F1A
:08400000FF3FFF3FFF3FFF3FC0
:02400E00FF3F72
:00000001FF
