:060000000A128A11FC2F18
:1000100083120313A400643024020318102811284B
:1000200041280A30F0000030F1002408F900FA01FC
:100030007908F2007A08F3000A128A119B200A124A
:100040008A11710883120313A3007008A200230809
:10005000F1002208F000F630F200FF30F3000A123F
:100060008A1580270A128A11831203132408700745
:10007000A00071080318710AA10022088600200858
:10008000870008000A128A1569270A128A110A12C3
:100090008A156F270A128A11543083160313A000A1
:1000A0000030A1000A128A117E210A128A118312DD
:1000B00003135208E6005108E5005008E4004F0819
:1000C000E3000A128A1102210A128A118312031311
:1000D000640883160313A3008312031363088316B3
:1000E0000313A20022080A128A1108200A128A1198
:1000F000831603132108803A83120313EE0083163C
:1001000003132308803A831203136E02031D8C2805
:10011000831603132208200203188F28902894289E
:100120008312031308145228831203130810522851
:100130000A128A110028F601F11F9F28A028A7287B
:10014000F009F109F00A0319F10AF601F60AF31FA2
:10015000AA28AB28B428F209F309F20A0319F30A12
:100160000130F4007408F606F701F8017008710414
:100170000319BB28BC28F328F501F50ACA28013069
:100180000310F00DF10DFF3E031DC0280130F400F7
:100190007408F507F11FCD28CE28BF2801300310C1
:1001A000F70DF80DFF3E031DCF2871087302031DE4
:1001B000DB2870087202031CDE28DF28E62870089E
:1001C000F2027108031CF303F302771401300310E9
:1001D000F10CF00CFF3E031DE7280130F502031D72
:1001E000F228F328CE2876080319F728F828FD28E6
:1001F000F709F809F70A0319F80A7808F1007708EF
:10020000F0000800031083120313650D660DE7006C
:100210006708ED006D08031D0E290F29182900300D
:10022000E6000030E5000030E4000030E3007D2906
:100230006308E7006408E8006508E9006608EA006A
:100240001F300310EA0CE90CE80CE70CFF3E031D1D
:1002500021296708EB006B08EC00E517FF30E30588
:10026000FF30E405FF30E5050030E6059630ED028D
:10027000ED1F3B293C2956296D08803A973E03180B
:100280004229432944290F2901300310E60CE50CCB
:10029000E40CE30CFF3E031D45290130E70067082D
:1002A000ED07031D5429552944296D2920306D027D
:1002B000031C5B295C2968290F290130E700031022
:1002C000E30DE40DE50DE60DE70B5F290130ED02CE
:1002D0006D08031D6C296D295D296C0803197129AE
:1002E00072297D29E309E409E509E609E30A03190E
:1002F000E40A0319E50A0319E60A080000300A12A5
:100300008A15CC270A128A11700883120313D300AE
:100310007108D400D501D6015608F8005508F70039
:100320005408F6005308F50000300A128A11022220
:100330000A128A11780883120313DA007708D900A9
:100340007608D8007508D7004430B8007F30B70071
:10035000C030B6000030B5004030A300A030A2008D
:100360000030A1000030A0005A08A7005908A600DC
:100370005808A5005708A4000A128A119B240A12E3
:100380008A11831203132308BC002208BB00210832
:10039000BA002008B9000A128A11BE220A128A1174
:1003A000831203133808DE003708DD003608DC004E
:1003B0003508DB003C30B8002330B700D730B6003A
:1003C0000A30B5005E08BC005D08BB005C08BA00DE
:1003D0005B08B9000A128A11BE220A128A1183121E
:1003E00003133808E2003708E1003608E00035085A
:1003F000DF006208D2006108D1006008D0005F0809
:10040000CF00080083120313A00020080319092A53
:100410000A2A1E2AF81F0D2A0E2A1E2A7509A20072
:100420007609A3007709A4007809A500A20A031998
:10043000A30A0319A40A0319A50A262A7808A50005
:100440007708A4007608A3007508A200780877044E
:1004500076047504031D2D2A2E2A372A0030F80051
:100460000030F7000030F6000030F500BD2A96306D
:10047000F9007908A100492A0130F9007908A1079B
:1004800001300310A50CA40CA30CA20CFF3E031D0D
:10049000412AFE302505031D4E2A4F2A3C2A6B2A8D
:1004A0000130F9007908A1070130A20700300318D4
:1004B0000130A307003003180130A40700300318EF
:1004C0000130A50701300310A50CA40CA30CA20C4D
:1004D000FF3E031D632AFF302505031D702A712A84
:1004E000502A7D2A0130A1020130F9000310A20D2B
:1004F000A30DA40DA50DF90B762AA41B802A812A31
:10050000872A023021020318862A872A722A211894
:100510008A2A8B2A932AFF30A205FF30A3057F3059
:10052000A405FF30A5050310A10C2108F900FA016C
:10053000FB01FC0118300310F90DFA0DFB0DFC0D49
:10054000FF3E031D9B2A7908A2047A08A3047B08B6
:10055000A4047C08A50420080319AF2AB02AB52AF0
:10056000F81FB32AB42AB52AA5172508F8002408CD
:10057000F7002308F6002208F50008008312031391
:100580003C088039BD003D08C6003C08BD003D0761
:10059000BE003E08CD00BB1FCE2ACF2AD02A4D1464
:1005A0004D080319D42AD52AE52A4D0A031DD92A54
:1005B000DA2AE22A0030BC000030BB000030BA006A
:1005C0000030B900BB17BC01ED2A0030BC00003080
:1005D000BB000030BA000030B90038088039BD00D7
:1005E0003D08C6063808BD003D07BE003E08CE00E7
:1005F000B71FFB2AFC2AFD2A4E144E080319012BB3
:10060000022B122B4E0A031D062B072B0F2B00303B
:10061000B8000030B7000030B6000030B500B717A2
:10062000B8011A2B0030B8000030B7000030B60017
:100630000030B5003808370436043504031D212B7B
:10064000222B3B2B0030BC000030BB000030BA0036
:100650000030B9008030BB047F30BC044608BD00C8
:100660003D08BC043C08B8003B08B7003A08B60097
:100670003908B5009A2C4D08031D3F2B402B492B00
:100680000030B8000030B7000030B6000030B500D0
:100690009A2C4D08BD00BE013E08C0004E083D0228
:1006A000BF00031CC0033F087F3EC700400803187B
:1006B000013E003EC8003C08C5003B08C4003A08A3
:1006C000C3003908C2000030BC000030BB0000305D
:1006D000BA000030B9000030CC000030CB00003050
:1006E000CA000030C900CE01BF2B4E080319792B78
:1006F0007A2B9A2B0130BD000310C20DC30DC40D1F
:10070000C50DBD0B7C2B0130BD000310B90DBA0D1A
:10071000BB0DBC0DBD0B852BCC1F8F2B902B912BB4
:1007200039140130BD000310C90DCA0DCB0DCC0D1D
:10073000BD0B932B38084502031DA82B3708440234
:10074000031DA82B36084302031DA82B35084202BF
:10075000031CAB2BAC2BBB2B4C173508C202360845
:10076000031C360FC3023708031C370FC4023808B6
:10077000031C380FC5020130BD003D08CE071A30FA
:100780004E02031CC42BC52B752B4508440443049F
:1007900042040319CC2BCD2BEC2B4914EC2B01304C
:1007A000BD000310B90DBA0DBB0DBC0DBD0BD12B97
:1007B000CC1FDB2BDC2BDD2B39140130BD000310EB
:1007C000C90DCA0DCB0DCC0DBD0BDF2BFF30C707FC
:1007D0000318C80AFF30C807BB1FEF2BF02BCF2B25
:1007E000CE01CC1FF42BF52B112CFF304905BD0099
:1007F000FF304A05BE00FF304B05BF007F304C057F
:10080000C00040083F043E043D040319082C092C95
:100810000C2CCE01CE0A112C391C0F2C102C112CB3
:10082000092C4E080319152C162C472C0130B9073A
:10083000003003180130BA07003003180130BB073D
:10084000003003180130BC073C1C272C282C472CF7
:100850003908BD003A08BE003B08BF003C08C00094
:100860000130C100400DC00CBF0CBE0CBD0CC10B53
:10087000322C4008BC003F08BB003E08BA003D08CF
:10088000B9000130C7070318C80A0030C807480874
:10089000803AFF0080307F02031D502CFF3047025A
:1008A000031C532C542C622CFF3083120313C700FB
:1008B0000030C8000030BC000030BB000030BA007F
:1008C0000030B900831203134808803AFF008030DB
:1008D0007F02031D6D2C013047020318702C712C10
:1008E0007E2C83120313C701C8010030BC00003006
:1008F000BB000030BA000030B900C60183120313F8
:100900004708BD003D08CD004D1C872C882C8A2C43
:10091000BB178E2C7F30BD003D08BB054D08BD00C8
:1009200003103D0CBE003E08BC004608BD003D085B
:10093000BC04322B08008312031323088039F9000A
:100940007908A8002308F9007907FA007A08AE00B0
:10095000A21FAB2CAC2CAD2C2E142E080319B12CDD
:10096000B22CC12C2E0A031DB62CB72CBF2C003084
:10097000A3000030A2000030A1000030A000A217A8
:10098000C92C0030A3000030A2000030A1000030CC
:10099000A00027088039F9007908A8062708F9007F
:1009A0007907FA007A08AD00A61FD72CD82CD92CCD
:1009B0002D142D080319DD2CDE2CED2C2D0A031D22
:1009C000E22CE32CEB2C0030A7000030A600003016
:1009D000A5000030A400A617F52C0030A7000030B9
:1009E000A6000030A5000030A4002D080319F92C42
:1009F000FA2CFF2C2E08031DFE2CFF2C082D003096
:100A0000A3000030A2000030A1000030A000FB2FA6
:100A10002008F9007908F00026080A128A15A5278F
:100A20000A128A11710883120313B4007008B3000C
:100A30003308F900FA01FB01FC017C08AC007B08DB
:100A4000AB007A08AA007908A9003408F900FA0175
:100A5000FB01FC017C08B2007B08B1007A08B00001
:100A60007908AF002108F9007908F00025080A127A
:100A70008A15A5270A128A11710883120313B4007C
:100A80007008B3003308F900FA01FB01FC01790892
:100A9000A9077A0803110318013E0319502DAA076C
:100AA0007B0803110318013E0319572DAB077C087F
:100AB00003110318013E03195E2DAC073408F90039
:100AC000FA01FB01FC017908AF077A08031103184A
:100AD000013E03196C2DB0077B0803110318013E7A
:100AE0000319732DB1077C0803110318013E031984
:100AF0007A2DB2072208F9007908F00024080A12BA
:100B00008A15A5270A128A11710883120313B400EB
:100B10007008B3003308F900FA01FB01FC01790801
:100B2000A9077A0803110318013E0319982DAA0793
:100B30007B0803110318013E03199F2DAB077C08A6
:100B400003110318013E0319A62DAC073408F90060
:100B5000FA01FB01FC017908AF077A0803110318B9
:100B6000013E0319B42DB0077B0803110318013EA1
:100B70000319BB2DB1077C0803110318013E0319AB
:100B8000C22DB2070830F9000310A90DAA0DAB0D54
:100B9000AC0DF90BC42D2108F9007908F0002408E8
:100BA0000A128A15A5270A128A11710883120313E3
:100BB000B4007008B3003308F9003408FA00FB01F0
:100BC000FC017908A9077A0803110318013E0319EB
:100BD000EA2DAA077B0803110318013E0319F12D22
:100BE000AB077C0803110318013E0319F82DAC076D
:100BF0002008F9007908F00025080A128A15A527AF
:100C00000A128A11710883120313B4007008B3002A
:100C10003308F9003408FA00FB01FC017908A90740
:100C20007A0803110318013E0319172EAA077B083F
:100C300003110318013E03191E2EAB077C08031194
:100C40000318013E0319252EAC070830F9000310E4
:100C5000A90DAA0DAB0DAC0DF90B272E2008F9003C
:100C60007908F00024080A128A15A5270A128A11A9
:100C7000710883120313B4007008B3003308F9003D
:100C80003408FA00FB01FC017908A9077A0803116E
:100C90000318013E03194D2EAA077B080311031800
:100CA000013E0319542EAB077C0803110318013EC3
:100CB00003195B2EAC072108F9007908F00026081B
:100CC0000A128A15A5270A128A11710883120313C2
:100CD000B4007008B3003308F9003408FA00FB01CF
:100CE000FC017908AF077A0803110318013E0319C4
:100CF0007A2EB0077B0803110318013E0319812ED9
:100D0000B1077C0803110318013E0319882EB207AE
:100D10002208F9007908F00025080A128A15A5278B
:100D20000A128A11710883120313B4007008B30009
:100D30003308F9003408FA00FB01FC017908AF0719
:100D40007A0803110318013E0319A72EB0077B0888
:100D500003110318013E0319AE2EB1077C080311DD
:100D60000318013E0319B52EB2072208F9007908CD
:100D7000F00026080A128A15A5270A128A1171089E
:100D800083120313B4007008B3003308F900340869
:100D9000FA00FB01FC0108300310F90DFA0DFB0D00
:100DA000FC0DFF3E031DCC2E7908AF077A08031116
:100DB0000318013E0319DD2EB0077B080311031849
:100DC000013E0319E42EB1077C0803110318013E0C
:100DD0000319EB2EB2072908F9002A08FA002B089C
:100DE000FB002C08FC0018300310FC0CFB0CFA0C68
:100DF000F90CFF3E031DF42E7908AF077A080311A2
:100E00000318013E0319052FB0077B0803110318CF
:100E1000013E03190C2FB1077C0803110318013E92
:100E20000319132FB2070830F9000310A90DAA0DFA
:100E3000AB0DAC0DF90B152F2E082D07F900FA019B
:100E4000FA0D7908823EB3007A080318013EFF3E8E
:100E5000B400472F0130F9000310AF0DB00DB10DF4
:100E6000B20DF90B2C2FAC1F362F372F382F2F1424
:100E70000130F9000310A90DAA0DAB0DAC0DF90B53
:100E80003A2FFF30B3070318B40AFF30B407B11F7D
:100E90004A2F4B2F2A2FAD01AC1F4F2F502F6C2FF5
:100EA000FF302905F900FF302A05FA00FF302B0535
:100EB000FB007F302C05FC007C087B047A0479045D
:100EC0000319632F642F672FAD01AD0A6C2F2F1C00
:100ED0006A2F6B2F6C2F642F2D080319702F712F21
:100EE000A22F0130AF07003003180130B0070030E7
:100EF00003180130B107003003180130B207321C6B
:100F0000822F832FA22F2F08F9003008FA00310812
:100F1000FB003208FC000130FD007C0DFC0CFB0CDA
:100F2000FA0CF90CFD0B8D2F7C08B2007B08B10088
:100F30007A08B0007908AF000130B3070318B40A8B
:100F40000030B4073408803AFF0080307F02031D70
:100F5000AB2FFF303302031CAE2FAF2FBA2F7F30E1
:100F600083120313B2008030B1000030B0000030B3
:100F7000AF00EF2F831203133408803AFF00803054
:100F80007F02031DC52F013033020318C82FC92F5C
:100F9000D52F003083120313B2000030B1000030AF
:100FA000B0000030AF00A801EF2F83120313330805
:100FB000F9007908AE00FF30AF05FF30B0057F3093
:100FC000B1050030B2052E1CE62FE72FE82FB11730
:100FD0002E08F9000310790CFA007A08B2002808EC
:100FE000F9007908B2043208A3003108A2003008E1
:100FF000A1002F08A000080083010A128A114228CC
:101ED200831603138601870188010800F0308316F8
:101EE20003139F059F171F13831203131F083F3904
:101EF20080389F00C7309F051F111F140800F4018E
:101F0200F501701C852F862F8C2F7208F407031899
:101F1200F50A7308F50701300310F20DF30DFF3EC9
:101F2200031D8D2F01300310F10CF00CFF3E031D39
:101F3200942F70087104031D9F2FA02F822F750804
:101F4200F1007408F0000800F800F401F5017008CF
:101F5200F200F3017208F6007308F700781CB22F42
:101F6200B32FB92F7608F4070318F50A7708F50797
:101F720001300310F60DF70DFF3E031DBA2F0310BB
:101F8200F80C7808031DC62FC72FAF2F7508F10074
:101F92007408F0000800F400083074020318D22F0D
:101FA200D32FFD2FC530F2007208831203139F0551
:101FB2007408F20002300310F20DFF3E031DDC2F05
:101FC2000310720DF30073089F040630F3003030E3
:101FD200F200F20BEA2FF30BEA2F00008312031335
:101FE2001F151F19F52FF62FF22F1E08F100831669
:0E1FF20003131E08F000FF2FF001F10108009C
:08400000FF3FFF3FFF3FFF3FC0
:02400E003A3F37
:00000001FF
