:100000000C9434000C9453000C9453000C94530043
:100010000C9453000C9453000C9453000C94530014
:100020000C9453000C9453000C9453000C94530004
:100030000C9453000C9453000C9453000C945300F4
:100040000C9453000C9453000C9453000C945300E4
:100050000C9453000C9453000C9453000C945300D4
:100060000C9453000C94530011241FBECFEFD8E022
:10007000DEBFCDBF0E944B000C944000F894FFCF30
:10008000EC010E9458000E945700CE010E945900C6
:06009000CE010E945500A4
:100096008FEF84B98AB98DE785B98FEB8BB908954F
:0400A6000C940000B6
:0400AA000E943E0072
:0200AE000895B3
:0200B0000895B1
:0200B2000895AF
:00000001FF
